{"contracts/Identification.sol":{"Identification":{"abi":[{"inputs":[{"internalType":"string","name":"aadhar","type":"string"}],"name":"get","outputs":[{"internalType":"uint256","name":"","type":"uint256"}],"stateMutability":"view","type":"function"},{"inputs":[{"internalType":"string","name":"name","type":"string"},{"internalType":"string","name":"dob","type":"string"},{"internalType":"string","name":"add","type":"string"},{"internalType":"string","name":"aadhar","type":"string"}],"name":"setDetails","outputs":[],"stateMutability":"nonpayable","type":"function"}],"evm":{"bytecode":{"linkReferences":{},"object":"60806040526128c060015534801561001657600080fd5b50610820806100266000396000f3fe608060405234801561001057600080fd5b50600436106100365760003560e01c8063693ec85e1461003b578063c649360e1461006b575b600080fd5b610055600480360381019061005091906102b9565b610087565b604051610062919061031b565b60405180910390f35b61008560048036038101906100809190610336565b6100b1565b005b60008082604051610098919061047e565b9081526020016040518091039020600301549050919050565b600160008154809291906100c4906104c4565b919050555060405180608001604052808581526020018481526020018381526020016001548152506000826040516100fc919061047e565b9081526020016040518091039020600082015181600001908161011f9190610718565b5060208201518160010190816101359190610718565b50604082015181600201908161014b9190610718565b506060820151816003015590505050505050565b6000604051905090565b600080fd5b600080fd5b600080fd5b600080fd5b6000601f19601f8301169050919050565b7f4e487b7100000000000000000000000000000000000000000000000000000000600052604160045260246000fd5b6101c68261017d565b810181811067ffffffffffffffff821117156101e5576101e461018e565b5b80604052505050565b60006101f861015f565b905061020482826101bd565b919050565b600067ffffffffffffffff8211156102245761022361018e565b5b61022d8261017d565b9050602081019050919050565b82818337600083830152505050565b600061025c61025784610209565b6101ee565b90508281526020810184848401111561027857610277610178565b5b61028384828561023a565b509392505050565b600082601f8301126102a05761029f610173565b5b81356102b0848260208601610249565b91505092915050565b6000602082840312156102cf576102ce610169565b5b600082013567ffffffffffffffff8111156102ed576102ec61016e565b5b6102f98482850161028b565b91505092915050565b6000819050919050565b61031581610302565b82525050565b6000602082019050610330600083018461030c565b92915050565b600080600080608085870312156103505761034f610169565b5b600085013567ffffffffffffffff81111561036e5761036d61016e565b5b61037a8782880161028b565b945050602085013567ffffffffffffffff81111561039b5761039a61016e565b5b6103a78782880161028b565b935050604085013567ffffffffffffffff8111156103c8576103c761016e565b5b6103d48782880161028b565b925050606085013567ffffffffffffffff8111156103f5576103f461016e565b5b6104018782880161028b565b91505092959194509250565b600081519050919050565b600081905092915050565b60005b83811015610441578082015181840152602081019050610426565b60008484015250505050565b60006104588261040d565b6104628185610418565b9350610472818560208601610423565b80840191505092915050565b600061048a828461044d565b915081905092915050565b7f4e487b7100000000000000000000000000000000000000000000000000000000600052601160045260246000fd5b60006104cf82610302565b91507fffffffffffffffffffffffffffffffffffffffffffffffffffffffffffffffff820361050157610500610495565b5b600182019050919050565b7f4e487b7100000000000000000000000000000000000000000000000000000000600052602260045260246000fd5b6000600282049050600182168061055357607f821691505b6020821081036105665761056561050c565b5b50919050565b60008190508160005260206000209050919050565b60006020601f8301049050919050565b600082821b905092915050565b6000600883026105ce7fffffffffffffffffffffffffffffffffffffffffffffffffffffffffffffffff82610591565b6105d88683610591565b95508019841693508086168417925050509392505050565b6000819050919050565b600061061561061061060b84610302565b6105f0565b610302565b9050919050565b6000819050919050565b61062f836105fa565b61064361063b8261061c565b84845461059e565b825550505050565b600090565b61065861064b565b610663818484610626565b505050565b5b818110156106875761067c600082610650565b600181019050610669565b5050565b601f8211156106cc5761069d8161056c565b6106a684610581565b810160208510156106b5578190505b6106c96106c185610581565b830182610668565b50505b505050565b600082821c905092915050565b60006106ef600019846008026106d1565b1980831691505092915050565b600061070883836106de565b9150826002028217905092915050565b6107218261040d565b67ffffffffffffffff81111561073a5761073961018e565b5b610744825461053b565b61074f82828561068b565b600060209050601f8311600181146107825760008415610770578287015190505b61077a85826106fc565b8655506107e2565b601f1984166107908661056c565b60005b828110156107b857848901518255600182019150602085019450602081019050610793565b868310156107d557848901516107d1601f8916826106de565b8355505b6001600288020188555050505b50505050505056fea2646970667358221220f341f7c959c8b246161dc5f74459fb5bea810d02373525e2cd1ed063b677c46964736f6c63430008120033","opcodes":"PUSH1 0x80 PUSH1 0x40 MSTORE PUSH2 0x28C0 PUSH1 0x1 SSTORE CALLVALUE DUP1 ISZERO PUSH2 0x16 JUMPI PUSH1 0x0 DUP1 REVERT JUMPDEST POP PUSH2 0x820 DUP1 PUSH2 0x26 PUSH1 0x0 CODECOPY PUSH1 0x0 RETURN INVALID PUSH1 0x80 PUSH1 0x40 MSTORE CALLVALUE DUP1 ISZERO PUSH2 0x10 JUMPI PUSH1 0x0 DUP1 REVERT JUMPDEST POP PUSH1 0x4 CALLDATASIZE LT PUSH2 0x36 JUMPI PUSH1 0x0 CALLDATALOAD PUSH1 0xE0 SHR DUP1 PUSH4 0x693EC85E EQ PUSH2 0x3B JUMPI DUP1 PUSH4 0xC649360E EQ PUSH2 0x6B JUMPI JUMPDEST PUSH1 0x0 DUP1 REVERT JUMPDEST PUSH2 0x55 PUSH1 0x4 DUP1 CALLDATASIZE SUB DUP2 ADD SWAP1 PUSH2 0x50 SWAP2 SWAP1 PUSH2 0x2B9 JUMP JUMPDEST PUSH2 0x87 JUMP JUMPDEST PUSH1 0x40 MLOAD PUSH2 0x62 SWAP2 SWAP1 PUSH2 0x31B JUMP JUMPDEST PUSH1 0x40 MLOAD DUP1 SWAP2 SUB SWAP1 RETURN JUMPDEST PUSH2 0x85 PUSH1 0x4 DUP1 CALLDATASIZE SUB DUP2 ADD SWAP1 PUSH2 0x80 SWAP2 SWAP1 PUSH2 0x336 JUMP JUMPDEST PUSH2 0xB1 JUMP JUMPDEST STOP JUMPDEST PUSH1 0x0 DUP1 DUP3 PUSH1 0x40 MLOAD PUSH2 0x98 SWAP2 SWAP1 PUSH2 0x47E JUMP JUMPDEST SWAP1 DUP2 MSTORE PUSH1 0x20 ADD PUSH1 0x40 MLOAD DUP1 SWAP2 SUB SWAP1 KECCAK256 PUSH1 0x3 ADD SLOAD SWAP1 POP SWAP2 SWAP1 POP JUMP JUMPDEST PUSH1 0x1 PUSH1 0x0 DUP2 SLOAD DUP1 SWAP3 SWAP2 SWAP1 PUSH2 0xC4 SWAP1 PUSH2 0x4C4 JUMP JUMPDEST SWAP2 SWAP1 POP SSTORE POP PUSH1 0x40 MLOAD DUP1 PUSH1 0x80 ADD PUSH1 0x40 MSTORE DUP1 DUP6 DUP2 MSTORE PUSH1 0x20 ADD DUP5 DUP2 MSTORE PUSH1 0x20 ADD DUP4 DUP2 MSTORE PUSH1 0x20 ADD PUSH1 0x1 SLOAD DUP2 MSTORE POP PUSH1 0x0 DUP3 PUSH1 0x40 MLOAD PUSH2 0xFC SWAP2 SWAP1 PUSH2 0x47E JUMP JUMPDEST SWAP1 DUP2 MSTORE PUSH1 0x20 ADD PUSH1 0x40 MLOAD DUP1 SWAP2 SUB SWAP1 KECCAK256 PUSH1 0x0 DUP3 ADD MLOAD DUP2 PUSH1 0x0 ADD SWAP1 DUP2 PUSH2 0x11F SWAP2 SWAP1 PUSH2 0x718 JUMP JUMPDEST POP PUSH1 0x20 DUP3 ADD MLOAD DUP2 PUSH1 0x1 ADD SWAP1 DUP2 PUSH2 0x135 SWAP2 SWAP1 PUSH2 0x718 JUMP JUMPDEST POP PUSH1 0x40 DUP3 ADD MLOAD DUP2 PUSH1 0x2 ADD SWAP1 DUP2 PUSH2 0x14B SWAP2 SWAP1 PUSH2 0x718 JUMP JUMPDEST POP PUSH1 0x60 DUP3 ADD MLOAD DUP2 PUSH1 0x3 ADD SSTORE SWAP1 POP POP POP POP POP POP JUMP JUMPDEST PUSH1 0x0 PUSH1 0x40 MLOAD SWAP1 POP SWAP1 JUMP JUMPDEST PUSH1 0x0 DUP1 REVERT JUMPDEST PUSH1 0x0 DUP1 REVERT JUMPDEST PUSH1 0x0 DUP1 REVERT JUMPDEST PUSH1 0x0 DUP1 REVERT JUMPDEST PUSH1 0x0 PUSH1 0x1F NOT PUSH1 0x1F DUP4 ADD AND SWAP1 POP SWAP2 SWAP1 POP JUMP JUMPDEST PUSH32 0x4E487B7100000000000000000000000000000000000000000000000000000000 PUSH1 0x0 MSTORE PUSH1 0x41 PUSH1 0x4 MSTORE PUSH1 0x24 PUSH1 0x0 REVERT JUMPDEST PUSH2 0x1C6 DUP3 PUSH2 0x17D JUMP JUMPDEST DUP2 ADD DUP2 DUP2 LT PUSH8 0xFFFFFFFFFFFFFFFF DUP3 GT OR ISZERO PUSH2 0x1E5 JUMPI PUSH2 0x1E4 PUSH2 0x18E JUMP JUMPDEST JUMPDEST DUP1 PUSH1 0x40 MSTORE POP POP POP JUMP JUMPDEST PUSH1 0x0 PUSH2 0x1F8 PUSH2 0x15F JUMP JUMPDEST SWAP1 POP PUSH2 0x204 DUP3 DUP3 PUSH2 0x1BD JUMP JUMPDEST SWAP2 SWAP1 POP JUMP JUMPDEST PUSH1 0x0 PUSH8 0xFFFFFFFFFFFFFFFF DUP3 GT ISZERO PUSH2 0x224 JUMPI PUSH2 0x223 PUSH2 0x18E JUMP JUMPDEST JUMPDEST PUSH2 0x22D DUP3 PUSH2 0x17D JUMP JUMPDEST SWAP1 POP PUSH1 0x20 DUP2 ADD SWAP1 POP SWAP2 SWAP1 POP JUMP JUMPDEST DUP3 DUP2 DUP4 CALLDATACOPY PUSH1 0x0 DUP4 DUP4 ADD MSTORE POP POP POP JUMP JUMPDEST PUSH1 0x0 PUSH2 0x25C PUSH2 0x257 DUP5 PUSH2 0x209 JUMP JUMPDEST PUSH2 0x1EE JUMP JUMPDEST SWAP1 POP DUP3 DUP2 MSTORE PUSH1 0x20 DUP2 ADD DUP5 DUP5 DUP5 ADD GT ISZERO PUSH2 0x278 JUMPI PUSH2 0x277 PUSH2 0x178 JUMP JUMPDEST JUMPDEST PUSH2 0x283 DUP5 DUP3 DUP6 PUSH2 0x23A JUMP JUMPDEST POP SWAP4 SWAP3 POP POP POP JUMP JUMPDEST PUSH1 0x0 DUP3 PUSH1 0x1F DUP4 ADD SLT PUSH2 0x2A0 JUMPI PUSH2 0x29F PUSH2 0x173 JUMP JUMPDEST JUMPDEST DUP2 CALLDATALOAD PUSH2 0x2B0 DUP5 DUP3 PUSH1 0x20 DUP7 ADD PUSH2 0x249 JUMP JUMPDEST SWAP2 POP POP SWAP3 SWAP2 POP POP JUMP JUMPDEST PUSH1 0x0 PUSH1 0x20 DUP3 DUP5 SUB SLT ISZERO PUSH2 0x2CF JUMPI PUSH2 0x2CE PUSH2 0x169 JUMP JUMPDEST JUMPDEST PUSH1 0x0 DUP3 ADD CALLDATALOAD PUSH8 0xFFFFFFFFFFFFFFFF DUP2 GT ISZERO PUSH2 0x2ED JUMPI PUSH2 0x2EC PUSH2 0x16E JUMP JUMPDEST JUMPDEST PUSH2 0x2F9 DUP5 DUP3 DUP6 ADD PUSH2 0x28B JUMP JUMPDEST SWAP2 POP POP SWAP3 SWAP2 POP POP JUMP JUMPDEST PUSH1 0x0 DUP2 SWAP1 POP SWAP2 SWAP1 POP JUMP JUMPDEST PUSH2 0x315 DUP2 PUSH2 0x302 JUMP JUMPDEST DUP3 MSTORE POP POP JUMP JUMPDEST PUSH1 0x0 PUSH1 0x20 DUP3 ADD SWAP1 POP PUSH2 0x330 PUSH1 0x0 DUP4 ADD DUP5 PUSH2 0x30C JUMP JUMPDEST SWAP3 SWAP2 POP POP JUMP JUMPDEST PUSH1 0x0 DUP1 PUSH1 0x0 DUP1 PUSH1 0x80 DUP6 DUP8 SUB SLT ISZERO PUSH2 0x350 JUMPI PUSH2 0x34F PUSH2 0x169 JUMP JUMPDEST JUMPDEST PUSH1 0x0 DUP6 ADD CALLDATALOAD PUSH8 0xFFFFFFFFFFFFFFFF DUP2 GT ISZERO PUSH2 0x36E JUMPI PUSH2 0x36D PUSH2 0x16E JUMP JUMPDEST JUMPDEST PUSH2 0x37A DUP8 DUP3 DUP9 ADD PUSH2 0x28B JUMP JUMPDEST SWAP5 POP POP PUSH1 0x20 DUP6 ADD CALLDATALOAD PUSH8 0xFFFFFFFFFFFFFFFF DUP2 GT ISZERO PUSH2 0x39B JUMPI PUSH2 0x39A PUSH2 0x16E JUMP JUMPDEST JUMPDEST PUSH2 0x3A7 DUP8 DUP3 DUP9 ADD PUSH2 0x28B JUMP JUMPDEST SWAP4 POP POP PUSH1 0x40 DUP6 ADD CALLDATALOAD PUSH8 0xFFFFFFFFFFFFFFFF DUP2 GT ISZERO PUSH2 0x3C8 JUMPI PUSH2 0x3C7 PUSH2 0x16E JUMP JUMPDEST JUMPDEST PUSH2 0x3D4 DUP8 DUP3 DUP9 ADD PUSH2 0x28B JUMP JUMPDEST SWAP3 POP POP PUSH1 0x60 DUP6 ADD CALLDATALOAD PUSH8 0xFFFFFFFFFFFFFFFF DUP2 GT ISZERO PUSH2 0x3F5 JUMPI PUSH2 0x3F4 PUSH2 0x16E JUMP JUMPDEST JUMPDEST PUSH2 0x401 DUP8 DUP3 DUP9 ADD PUSH2 0x28B JUMP JUMPDEST SWAP2 POP POP SWAP3 SWAP6 SWAP2 SWAP5 POP SWAP3 POP JUMP JUMPDEST PUSH1 0x0 DUP2 MLOAD SWAP1 POP SWAP2 SWAP1 POP JUMP JUMPDEST PUSH1 0x0 DUP2 SWAP1 POP SWAP3 SWAP2 POP POP JUMP JUMPDEST PUSH1 0x0 JUMPDEST DUP4 DUP2 LT ISZERO PUSH2 0x441 JUMPI DUP1 DUP3 ADD MLOAD DUP2 DUP5 ADD MSTORE PUSH1 0x20 DUP2 ADD SWAP1 POP PUSH2 0x426 JUMP JUMPDEST PUSH1 0x0 DUP5 DUP5 ADD MSTORE POP POP POP POP JUMP JUMPDEST PUSH1 0x0 PUSH2 0x458 DUP3 PUSH2 0x40D JUMP JUMPDEST PUSH2 0x462 DUP2 DUP6 PUSH2 0x418 JUMP JUMPDEST SWAP4 POP PUSH2 0x472 DUP2 DUP6 PUSH1 0x20 DUP7 ADD PUSH2 0x423 JUMP JUMPDEST DUP1 DUP5 ADD SWAP2 POP POP SWAP3 SWAP2 POP POP JUMP JUMPDEST PUSH1 0x0 PUSH2 0x48A DUP3 DUP5 PUSH2 0x44D JUMP JUMPDEST SWAP2 POP DUP2 SWAP1 POP SWAP3 SWAP2 POP POP JUMP JUMPDEST PUSH32 0x4E487B7100000000000000000000000000000000000000000000000000000000 PUSH1 0x0 MSTORE PUSH1 0x11 PUSH1 0x4 MSTORE PUSH1 0x24 PUSH1 0x0 REVERT JUMPDEST PUSH1 0x0 PUSH2 0x4CF DUP3 PUSH2 0x302 JUMP JUMPDEST SWAP2 POP PUSH32 0xFFFFFFFFFFFFFFFFFFFFFFFFFFFFFFFFFFFFFFFFFFFFFFFFFFFFFFFFFFFFFFFF DUP3 SUB PUSH2 0x501 JUMPI PUSH2 0x500 PUSH2 0x495 JUMP JUMPDEST JUMPDEST PUSH1 0x1 DUP3 ADD SWAP1 POP SWAP2 SWAP1 POP JUMP JUMPDEST PUSH32 0x4E487B7100000000000000000000000000000000000000000000000000000000 PUSH1 0x0 MSTORE PUSH1 0x22 PUSH1 0x4 MSTORE PUSH1 0x24 PUSH1 0x0 REVERT JUMPDEST PUSH1 0x0 PUSH1 0x2 DUP3 DIV SWAP1 POP PUSH1 0x1 DUP3 AND DUP1 PUSH2 0x553 JUMPI PUSH1 0x7F DUP3 AND SWAP2 POP JUMPDEST PUSH1 0x20 DUP3 LT DUP2 SUB PUSH2 0x566 JUMPI PUSH2 0x565 PUSH2 0x50C JUMP JUMPDEST JUMPDEST POP SWAP2 SWAP1 POP JUMP JUMPDEST PUSH1 0x0 DUP2 SWAP1 POP DUP2 PUSH1 0x0 MSTORE PUSH1 0x20 PUSH1 0x0 KECCAK256 SWAP1 POP SWAP2 SWAP1 POP JUMP JUMPDEST PUSH1 0x0 PUSH1 0x20 PUSH1 0x1F DUP4 ADD DIV SWAP1 POP SWAP2 SWAP1 POP JUMP JUMPDEST PUSH1 0x0 DUP3 DUP3 SHL SWAP1 POP SWAP3 SWAP2 POP POP JUMP JUMPDEST PUSH1 0x0 PUSH1 0x8 DUP4 MUL PUSH2 0x5CE PUSH32 0xFFFFFFFFFFFFFFFFFFFFFFFFFFFFFFFFFFFFFFFFFFFFFFFFFFFFFFFFFFFFFFFF DUP3 PUSH2 0x591 JUMP JUMPDEST PUSH2 0x5D8 DUP7 DUP4 PUSH2 0x591 JUMP JUMPDEST SWAP6 POP DUP1 NOT DUP5 AND SWAP4 POP DUP1 DUP7 AND DUP5 OR SWAP3 POP POP POP SWAP4 SWAP3 POP POP POP JUMP JUMPDEST PUSH1 0x0 DUP2 SWAP1 POP SWAP2 SWAP1 POP JUMP JUMPDEST PUSH1 0x0 PUSH2 0x615 PUSH2 0x610 PUSH2 0x60B DUP5 PUSH2 0x302 JUMP JUMPDEST PUSH2 0x5F0 JUMP JUMPDEST PUSH2 0x302 JUMP JUMPDEST SWAP1 POP SWAP2 SWAP1 POP JUMP JUMPDEST PUSH1 0x0 DUP2 SWAP1 POP SWAP2 SWAP1 POP JUMP JUMPDEST PUSH2 0x62F DUP4 PUSH2 0x5FA JUMP JUMPDEST PUSH2 0x643 PUSH2 0x63B DUP3 PUSH2 0x61C JUMP JUMPDEST DUP5 DUP5 SLOAD PUSH2 0x59E JUMP JUMPDEST DUP3 SSTORE POP POP POP POP JUMP JUMPDEST PUSH1 0x0 SWAP1 JUMP JUMPDEST PUSH2 0x658 PUSH2 0x64B JUMP JUMPDEST PUSH2 0x663 DUP2 DUP5 DUP5 PUSH2 0x626 JUMP JUMPDEST POP POP POP JUMP JUMPDEST JUMPDEST DUP2 DUP2 LT ISZERO PUSH2 0x687 JUMPI PUSH2 0x67C PUSH1 0x0 DUP3 PUSH2 0x650 JUMP JUMPDEST PUSH1 0x1 DUP2 ADD SWAP1 POP PUSH2 0x669 JUMP JUMPDEST POP POP JUMP JUMPDEST PUSH1 0x1F DUP3 GT ISZERO PUSH2 0x6CC JUMPI PUSH2 0x69D DUP2 PUSH2 0x56C JUMP JUMPDEST PUSH2 0x6A6 DUP5 PUSH2 0x581 JUMP JUMPDEST DUP2 ADD PUSH1 0x20 DUP6 LT ISZERO PUSH2 0x6B5 JUMPI DUP2 SWAP1 POP JUMPDEST PUSH2 0x6C9 PUSH2 0x6C1 DUP6 PUSH2 0x581 JUMP JUMPDEST DUP4 ADD DUP3 PUSH2 0x668 JUMP JUMPDEST POP POP JUMPDEST POP POP POP JUMP JUMPDEST PUSH1 0x0 DUP3 DUP3 SHR SWAP1 POP SWAP3 SWAP2 POP POP JUMP JUMPDEST PUSH1 0x0 PUSH2 0x6EF PUSH1 0x0 NOT DUP5 PUSH1 0x8 MUL PUSH2 0x6D1 JUMP JUMPDEST NOT DUP1 DUP4 AND SWAP2 POP POP SWAP3 SWAP2 POP POP JUMP JUMPDEST PUSH1 0x0 PUSH2 0x708 DUP4 DUP4 PUSH2 0x6DE JUMP JUMPDEST SWAP2 POP DUP3 PUSH1 0x2 MUL DUP3 OR SWAP1 POP SWAP3 SWAP2 POP POP JUMP JUMPDEST PUSH2 0x721 DUP3 PUSH2 0x40D JUMP JUMPDEST PUSH8 0xFFFFFFFFFFFFFFFF DUP2 GT ISZERO PUSH2 0x73A JUMPI PUSH2 0x739 PUSH2 0x18E JUMP JUMPDEST JUMPDEST PUSH2 0x744 DUP3 SLOAD PUSH2 0x53B JUMP JUMPDEST PUSH2 0x74F DUP3 DUP3 DUP6 PUSH2 0x68B JUMP JUMPDEST PUSH1 0x0 PUSH1 0x20 SWAP1 POP PUSH1 0x1F DUP4 GT PUSH1 0x1 DUP2 EQ PUSH2 0x782 JUMPI PUSH1 0x0 DUP5 ISZERO PUSH2 0x770 JUMPI DUP3 DUP8 ADD MLOAD SWAP1 POP JUMPDEST PUSH2 0x77A DUP6 DUP3 PUSH2 0x6FC JUMP JUMPDEST DUP7 SSTORE POP PUSH2 0x7E2 JUMP JUMPDEST PUSH1 0x1F NOT DUP5 AND PUSH2 0x790 DUP7 PUSH2 0x56C JUMP JUMPDEST PUSH1 0x0 JUMPDEST DUP3 DUP2 LT ISZERO PUSH2 0x7B8 JUMPI DUP5 DUP10 ADD MLOAD DUP3 SSTORE PUSH1 0x1 DUP3 ADD SWAP2 POP PUSH1 0x20 DUP6 ADD SWAP5 POP PUSH1 0x20 DUP2 ADD SWAP1 POP PUSH2 0x793 JUMP JUMPDEST DUP7 DUP4 LT ISZERO PUSH2 0x7D5 JUMPI DUP5 DUP10 ADD MLOAD PUSH2 0x7D1 PUSH1 0x1F DUP10 AND DUP3 PUSH2 0x6DE JUMP JUMPDEST DUP4 SSTORE POP JUMPDEST PUSH1 0x1 PUSH1 0x2 DUP9 MUL ADD DUP9 SSTORE POP POP POP JUMPDEST POP POP POP POP POP POP JUMP INVALID LOG2 PUSH5 0x6970667358 0x22 SLT KECCAK256 RETURN COINBASE 0xF7 0xC9 MSIZE 0xC8 0xB2 CHAINID AND SAR 0xC5 0xF7 PREVRANDAO MSIZE 0xFB JUMPDEST 0xEA DUP2 0xD MUL CALLDATACOPY CALLDATALOAD 0x25 0xE2 0xCD 0x1E 0xD0 PUSH4 0xB677C469 PUSH5 0x736F6C6343 STOP ADDMOD SLT STOP CALLER "},"methodIdentifiers":{"get(string)":"693ec85e","setDetails(string,string,string,string)":"c649360e"}}}}}