{
  "_format": "hh-sol-artifact-1",
  "contractName": "Identification",
  "sourceName": "contracts/Identification.sol",
  "abi": [
    {
      "inputs": [
        {
          "internalType": "string",
          "name": "aadhar",
          "type": "string"
        }
      ],
      "name": "get",
      "outputs": [
        {
          "internalType": "uint256",
          "name": "",
          "type": "uint256"
        }
      ],
      "stateMutability": "view",
      "type": "function"
    },
    {
      "inputs": [
        {
          "internalType": "string",
          "name": "name",
          "type": "string"
        },
        {
          "internalType": "string",
          "name": "dob",
          "type": "string"
        },
        {
          "internalType": "string",
          "name": "add",
          "type": "string"
        },
        {
          "internalType": "string",
          "name": "aadhar",
          "type": "string"
        }
      ],
      "name": "setDetails",
      "outputs": [],
      "stateMutability": "nonpayable",
      "type": "function"
    }
  ],
  "bytecode": "0x60806040526128c060015534801561001657600080fd5b50610820806100266000396000f3fe608060405234801561001057600080fd5b50600436106100365760003560e01c8063693ec85e1461003b578063c649360e1461006b575b600080fd5b610055600480360381019061005091906102b9565b610087565b604051610062919061031b565b60405180910390f35b61008560048036038101906100809190610336565b6100b1565b005b60008082604051610098919061047e565b9081526020016040518091039020600301549050919050565b600160008154809291906100c4906104c4565b919050555060405180608001604052808581526020018481526020018381526020016001548152506000826040516100fc919061047e565b9081526020016040518091039020600082015181600001908161011f9190610718565b5060208201518160010190816101359190610718565b50604082015181600201908161014b9190610718565b506060820151816003015590505050505050565b6000604051905090565b600080fd5b600080fd5b600080fd5b600080fd5b6000601f19601f8301169050919050565b7f4e487b7100000000000000000000000000000000000000000000000000000000600052604160045260246000fd5b6101c68261017d565b810181811067ffffffffffffffff821117156101e5576101e461018e565b5b80604052505050565b60006101f861015f565b905061020482826101bd565b919050565b600067ffffffffffffffff8211156102245761022361018e565b5b61022d8261017d565b9050602081019050919050565b82818337600083830152505050565b600061025c61025784610209565b6101ee565b90508281526020810184848401111561027857610277610178565b5b61028384828561023a565b509392505050565b600082601f8301126102a05761029f610173565b5b81356102b0848260208601610249565b91505092915050565b6000602082840312156102cf576102ce610169565b5b600082013567ffffffffffffffff8111156102ed576102ec61016e565b5b6102f98482850161028b565b91505092915050565b6000819050919050565b61031581610302565b82525050565b6000602082019050610330600083018461030c565b92915050565b600080600080608085870312156103505761034f610169565b5b600085013567ffffffffffffffff81111561036e5761036d61016e565b5b61037a8782880161028b565b945050602085013567ffffffffffffffff81111561039b5761039a61016e565b5b6103a78782880161028b565b935050604085013567ffffffffffffffff8111156103c8576103c761016e565b5b6103d48782880161028b565b925050606085013567ffffffffffffffff8111156103f5576103f461016e565b5b6104018782880161028b565b91505092959194509250565b600081519050919050565b600081905092915050565b60005b83811015610441578082015181840152602081019050610426565b60008484015250505050565b60006104588261040d565b6104628185610418565b9350610472818560208601610423565b80840191505092915050565b600061048a828461044d565b915081905092915050565b7f4e487b7100000000000000000000000000000000000000000000000000000000600052601160045260246000fd5b60006104cf82610302565b91507fffffffffffffffffffffffffffffffffffffffffffffffffffffffffffffffff820361050157610500610495565b5b600182019050919050565b7f4e487b7100000000000000000000000000000000000000000000000000000000600052602260045260246000fd5b6000600282049050600182168061055357607f821691505b6020821081036105665761056561050c565b5b50919050565b60008190508160005260206000209050919050565b60006020601f8301049050919050565b600082821b905092915050565b6000600883026105ce7fffffffffffffffffffffffffffffffffffffffffffffffffffffffffffffffff82610591565b6105d88683610591565b95508019841693508086168417925050509392505050565b6000819050919050565b600061061561061061060b84610302565b6105f0565b610302565b9050919050565b6000819050919050565b61062f836105fa565b61064361063b8261061c565b84845461059e565b825550505050565b600090565b61065861064b565b610663818484610626565b505050565b5b818110156106875761067c600082610650565b600181019050610669565b5050565b601f8211156106cc5761069d8161056c565b6106a684610581565b810160208510156106b5578190505b6106c96106c185610581565b830182610668565b50505b505050565b600082821c905092915050565b60006106ef600019846008026106d1565b1980831691505092915050565b600061070883836106de565b9150826002028217905092915050565b6107218261040d565b67ffffffffffffffff81111561073a5761073961018e565b5b610744825461053b565b61074f82828561068b565b600060209050601f8311600181146107825760008415610770578287015190505b61077a85826106fc565b8655506107e2565b601f1984166107908661056c565b60005b828110156107b857848901518255600182019150602085019450602081019050610793565b868310156107d557848901516107d1601f8916826106de565b8355505b6001600288020188555050505b50505050505056fea2646970667358221220f341f7c959c8b246161dc5f74459fb5bea810d02373525e2cd1ed063b677c46964736f6c63430008120033",
  "linkReferences": {},
  "deployedLinkReferences": {}
}