{
  "_format": "hh-sol-artifact-1",
  "contractName": "Identification",
  "sourceName": "contracts/Identification.sol",
  "abi": [
    {
      "anonymous": false,
      "inputs": [
        {
          "indexed": false,
          "internalType": "string",
          "name": "json",
          "type": "string"
        }
      ],
      "name": "PersonReturned",
      "type": "event"
    },
    {
      "inputs": [
        {
          "internalType": "string",
          "name": "aadhar",
          "type": "string"
        }
      ],
      "name": "getDetails",
      "outputs": [],
      "stateMutability": "nonpayable",
      "type": "function"
    },
    {
      "inputs": [
        {
          "internalType": "string",
          "name": "name",
          "type": "string"
        },
        {
          "internalType": "string",
          "name": "dob",
          "type": "string"
        },
        {
          "internalType": "string",
          "name": "add",
          "type": "string"
        },
        {
          "internalType": "string",
          "name": "aadhar",
          "type": "string"
        }
      ],
      "name": "setDetails",
      "outputs": [],
      "stateMutability": "nonpayable",
      "type": "function"
    }
  ],
  "bytecode": "0x608060405234801561001057600080fd5b50610ce7806100206000396000f3fe608060405234801561001057600080fd5b50600436106100365760003560e01c80631328fd8f1461003b578063c649360e14610057575b600080fd5b61005560048036038101906100509190610557565b610073565b005b610071600480360381019061006c91906105a0565b61035d565b005b6000808260405161008491906106e8565b90815260200160405180910390206040518060800160405290816000820180546100ad9061072e565b80601f01602080910402602001604051908101604052809291908181526020018280546100d99061072e565b80156101265780601f106100fb57610100808354040283529160200191610126565b820191906000526020600020905b81548152906001019060200180831161010957829003601f168201915b5050505050815260200160018201805461013f9061072e565b80601f016020809104026020016040519081016040528092919081815260200182805461016b9061072e565b80156101b85780601f1061018d576101008083540402835291602001916101b8565b820191906000526020600020905b81548152906001019060200180831161019b57829003601f168201915b505050505081526020016002820180546101d19061072e565b80601f01602080910402602001604051908101604052809291908181526020018280546101fd9061072e565b801561024a5780601f1061021f5761010080835404028352916020019161024a565b820191906000526020600020905b81548152906001019060200180831161022d57829003601f168201915b505050505081526020016003820180546102639061072e565b80601f016020809104026020016040519081016040528092919081815260200182805461028f9061072e565b80156102dc5780601f106102b1576101008083540402835291602001916102dc565b820191906000526020600020905b8154815290600101906020018083116102bf57829003601f168201915b5050505050815250509050600081600001518260200151836040015184606001516040516020016103109493929190610927565b60405160208183030381529060405290507fbd5a3589a8d39419415c6648d983aac7f35d9c1875b632b0fe606f1d27fb42e3816040516103509190610a07565b60405180910390a1505050565b60405180608001604052808581526020018481526020018381526020018281525060008260405161038e91906106e8565b908152602001604051809103902060008201518160000190816103b19190610bdf565b5060208201518160010190816103c79190610bdf565b5060408201518160020190816103dd9190610bdf565b5060608201518160030190816103f39190610bdf565b5090505050505050565b6000604051905090565b600080fd5b600080fd5b600080fd5b600080fd5b6000601f19601f8301169050919050565b7f4e487b7100000000000000000000000000000000000000000000000000000000600052604160045260246000fd5b6104648261041b565b810181811067ffffffffffffffff821117156104835761048261042c565b5b80604052505050565b60006104966103fd565b90506104a2828261045b565b919050565b600067ffffffffffffffff8211156104c2576104c161042c565b5b6104cb8261041b565b9050602081019050919050565b82818337600083830152505050565b60006104fa6104f5846104a7565b61048c565b90508281526020810184848401111561051657610515610416565b5b6105218482856104d8565b509392505050565b600082601f83011261053e5761053d610411565b5b813561054e8482602086016104e7565b91505092915050565b60006020828403121561056d5761056c610407565b5b600082013567ffffffffffffffff81111561058b5761058a61040c565b5b61059784828501610529565b91505092915050565b600080600080608085870312156105ba576105b9610407565b5b600085013567ffffffffffffffff8111156105d8576105d761040c565b5b6105e487828801610529565b945050602085013567ffffffffffffffff8111156106055761060461040c565b5b61061187828801610529565b935050604085013567ffffffffffffffff8111156106325761063161040c565b5b61063e87828801610529565b925050606085013567ffffffffffffffff81111561065f5761065e61040c565b5b61066b87828801610529565b91505092959194509250565b600081519050919050565b600081905092915050565b60005b838110156106ab578082015181840152602081019050610690565b60008484015250505050565b60006106c282610677565b6106cc8185610682565b93506106dc81856020860161068d565b80840191505092915050565b60006106f482846106b7565b915081905092915050565b7f4e487b7100000000000000000000000000000000000000000000000000000000600052602260045260246000fd5b6000600282049050600182168061074657607f821691505b602082108103610759576107586106ff565b5b50919050565b7f7b226e616d65223a220000000000000000000000000000000000000000000000600082015250565b6000610795600983610682565b91506107a08261075f565b600982019050919050565b7f222c000000000000000000000000000000000000000000000000000000000000600082015250565b60006107e1600283610682565b91506107ec826107ab565b600282019050919050565b7f22646f62223a2200000000000000000000000000000000000000000000000000600082015250565b600061082d600783610682565b9150610838826107f7565b600782019050919050565b7f22616464223a2200000000000000000000000000000000000000000000000000600082015250565b6000610879600783610682565b915061088482610843565b600782019050919050565b7f22616164686172223a2200000000000000000000000000000000000000000000600082015250565b60006108c5600a83610682565b91506108d08261088f565b600a82019050919050565b7f227d000000000000000000000000000000000000000000000000000000000000600082015250565b6000610911600283610682565b915061091c826108db565b600282019050919050565b600061093282610788565b915061093e82876106b7565b9150610949826107d4565b915061095482610820565b915061096082866106b7565b915061096b826107d4565b91506109768261086c565b915061098282856106b7565b915061098d826107d4565b9150610998826108b8565b91506109a482846106b7565b91506109af82610904565b915081905095945050505050565b600082825260208201905092915050565b60006109d982610677565b6109e381856109bd565b93506109f381856020860161068d565b6109fc8161041b565b840191505092915050565b60006020820190508181036000830152610a2181846109ce565b905092915050565b60008190508160005260206000209050919050565b60006020601f8301049050919050565b600082821b905092915050565b600060088302610a8b7fffffffffffffffffffffffffffffffffffffffffffffffffffffffffffffffff82610a4e565b610a958683610a4e565b95508019841693508086168417925050509392505050565b6000819050919050565b6000819050919050565b6000610adc610ad7610ad284610aad565b610ab7565b610aad565b9050919050565b6000819050919050565b610af683610ac1565b610b0a610b0282610ae3565b848454610a5b565b825550505050565b600090565b610b1f610b12565b610b2a818484610aed565b505050565b5b81811015610b4e57610b43600082610b17565b600181019050610b30565b5050565b601f821115610b9357610b6481610a29565b610b6d84610a3e565b81016020851015610b7c578190505b610b90610b8885610a3e565b830182610b2f565b50505b505050565b600082821c905092915050565b6000610bb660001984600802610b98565b1980831691505092915050565b6000610bcf8383610ba5565b9150826002028217905092915050565b610be882610677565b67ffffffffffffffff811115610c0157610c0061042c565b5b610c0b825461072e565b610c16828285610b52565b600060209050601f831160018114610c495760008415610c37578287015190505b610c418582610bc3565b865550610ca9565b601f198416610c5786610a29565b60005b82811015610c7f57848901518255600182019150602085019450602081019050610c5a565b86831015610c9c5784890151610c98601f891682610ba5565b8355505b6001600288020188555050505b50505050505056fea2646970667358221220d71d5beb41b67e2d30aed0a90001d33afc7e884d7a32a9c6252825c7839f101964736f6c63430008120033",
  "linkReferences": {},
  "deployedLinkReferences": {}
}